:020000040000fa
:080000000001040000000000f3
:020000040000fa
:04000800d80100001b
:020000040000fa
:04000c00a801000047
:020000040000fa
:04001000ae0100003d
:020000040000fa
:04001400b401000033
:020000040000fa
:04001800ba01000029
:020000040000fa
:04001c00d801000007
:020000040000fa
:04002000d801000003
:020000040000fa
:04002400d8010000ff
:020000040000fa
:04002800d8010000fb
:020000040000fa
:04002c00d8010000f7
:020000040000fa
:04003000d8010000f3
:020000040000fa
:04003400d8010000ef
:020000040000fa
:04003800d8010000eb
:020000040000fa
:04003c00d8010000e7
:020000040000fa
:04004000d8010000e3
:020000040000fa
:04004400d8010000df
:020000040000fa
:04004800d8010000db
:020000040000fa
:04004c000619000091
:020000040000fa
:040050002c19000067
:020000040000fa
:04005400d8010000cf
:020000040000fa
:04005800d8010000cb
:020000040000fa
:04005c00d8010000c7
:020000040000fa
:04006000d8010000c3
:020000040000fa
:04006400d8010000bf
:020000040000fa
:04006800d8010000bb
:020000040000fa
:04006c00d8010000b7
:020000040000fa
:04007000d8010000b3
:020000040000fa
:04007400d8010000af
:020000040000fa
:04007800d8010000ab
:020000040000fa
:04007c00d8010000a7
:020000040000fa
:04008000d8010000a3
:020000040000fa
:04008400d80100009f
:020000040000fa
:040088003419000027
:020000040000fa
:04008c005a190000fd
:020000040000fa
:04009000d801000093
:020000040000fa
:04009400320f000027
:020000040000fa
:04009800d80100008b
:020000040000fa
:04009c00d801000087
:020000040000fa
:0400a000d801000083
:020000040000fa
:0400a400d80100007f
:020000040000fa
:0400a800d80100007b
:020000040000fa
:0400ac00d801000077
:020000040000fa
:0400b000d801000073
:020000040000fa
:0400b400d80100006f
:020000040000fa
:0400b800d80100006b
:020000040000fa
:0400bc00d801000067
:020000040000fa
:0400c000d801000063
:020000040000fa
:0400c400d80100005f
:020000040000fa
:0400c800d80100005b
:020000040000fa
:0400cc00d801000057
:020000040000fa
:0400d000d801000053
:020000040000fa
:0400d400d80100004f
:020000040000fa
:0400d800d80100004b
:020000040000fa
:04010800d80100001a
:020000040000fa
:04010c00c00100002e
:020000040000fa
:04011000c601000024
:020000040000fa
:04011400cc0100001a
:020000040000fa
:04011800d201000010
:020000040000fa
:04011c00d801000006
:020000040000fa
:04012000d801000002
:020000040000fa
:04012400d8010000fe
:020000040000fa
:04012800d8010000fa
:020000040000fa
:04012c00d8010000f6
:020000040000fa
:04013000d8010000f2
:020000040000fa
:04013400d8010000ee
:020000040000fa
:04013800d8010000ea
:020000040000fa
:04013c00d8010000e6
:020000040000fa
:04014000d8010000e2
:020000040000fa
:04014400d8010000de
:020000040000fa
:04014800d8010000da
:020000040000fa
:04014c00d8010000d6
:020000040000fa
:04015000d8010000d2
:020000040000fa
:04015400d8010000ce
:020000040000fa
:04015800d8010000ca
:020000040000fa
:04015c00d8010000c6
:020000040000fa
:04016000d8010000c2
:020000040000fa
:04016400d8010000be
:020000040000fa
:04016800d8010000ba
:020000040000fa
:04016c00d8010000b6
:020000040000fa
:04017000d8010000b2
:020000040000fa
:04017400d8010000ae
:020000040000fa
:04017800d8010000aa
:020000040000fa
:04017c00d8010000a6
:020000040000fa
:04018000d8010000a2
:020000040000fa
:04018400d80100009e
:020000040000fa
:04018800d80100009a
:020000040000fa
:04018c00d801000096
:020000040000fa
:04019000d801000092
:020000040000fa
:04019400d80100008e
:020000040000fa
:04019800d80100008a
:020000040000fa
:04019c00d801000086
:020000040000fa
:0401a000d801000082
:020000040000fa
:0401a400d80100007e
:020000040000fa
:0401a800d80100007a
:020000040000fa
:0401ac00d801000076
:020000040000fa
:0401b000d801000072
:020000040000fa
:0401b400d80100006e
:020000040000fa
:0401b800d80100006a
:020000040000fa
:0401bc00d801000066
:020000040000fa
:0401c000d801000062
:020000040000fa
:0401c400d80100005e
:020000040000fa
:0401c800d80100005a
:020000040000fa
:0401cc00d801000056
:020000040000fa
:0401d000d801000052
:020000040000fa
:0401d400d80100004e
:020000040000fa
:0401d800d80100004a
:020000040000fa
:100200006fda20000eff20000e01880000000000c1
:10021000000020000000e000020032000001200089
:10022000200288000c00070080e821000100200067
:1002300011000700000020000000e0000200320072
:100240000000020000000000961402000000000000
:100250000040da000000fe004440a9000020200019
:100260000000e0000300320000002000a001880030
:100270004440a8000000060091018800800078003a
:100280000000eb0015003700e280400032a0b4000f
:100290009101ba00e280400032a0b4009102ba009d
:1002a000e280400032a0b4000002eb00472bde00e9
:1002b000f507b200602ce10004003a000059eb00a1
:1002c0008301e900fdff3e00040037006128e100e2
:1002d000010032000082eb000b00070011c3ba00de
:1002e0001101ba000604e00003003a000200e00039
:1002f000e5ff3a0000000600f607b200960188000c
:1003000082007800f5ff37003159ba008301e90017
:100310000c0032002159ba008301e90008003200c4
:100320000400e00003003a00e280400032a0b40084
:10033000f5ff370011d9ba008301e900faff3a004e
:100340008100e800e180400032a0b4000000060017
:100350000000fa008020a900ffff37000000fa002b
:100360008060a900ffff37000000fa008040a9006c
:10037000ffff37000000fa008080a900ffff370070
:100380000000fa008020a900ffff37000000fa00fb
:100390008060a900ffff37000000fa008040a9003c
:1003a000ffff37000000fa008080a900ffff370040
:1003b0000040da000000fe003200f80091018800e1
:1003c0000008bb00410424006210e1000400320078
:1003d000000220000010e1000a003a00510424004d
:1003e000013b88000500fc0051052000313b8800de
:1003f000a10a2000313b880061e7a800000000004e
:10040000000000003200f900000006003200f80091
:1004100060042400003b8800f2ff37003200f8003f
:100420009101880041002400013b88000208bb00c4
:10043000ecff37003200f8009101880051002400e1
:10044000013b8800030120003218bb008301e90052
:10045000fdff3a00e3ff37003200f8009101880009
:100460008002780062004000e08048003549ba0010
:100470003204e0000410a700100032008301e900fc
:100480000e0032002549ba003204e0000410a70033
:100490000a0032008301e900080032000408a300ca
:1004a000eeff320015c9ba003204e0000410a700c4
:1004b000020032008301e900e8ff3a003200f9004f
:1004c0000000060003f0a200889fbe008a9fbe00c5
:1004d0008c1f7800f3000700fa0033006450e1003d
:1004e0004f0032006420e1005200320003826c00b1
:1004f00007003b000905d0000306d000820f54001e
:100500000c065d000200390002003200890178000b
:10051000030678008582550004003d000003fd00bd
:100520008103fd008502ea008b854200840f720082
:1005300002003b0060001000e08018006011b8006d
:100540000005eb007a28e1000a0039000600780077
:10055000c75ddd00f707b200878075002d0037000a
:10056000828171000a017800610560008180d100fc
:100570000080d3008502e900f9ff3b00060440003b
:100580008784480002003b0060041400e0841c00e3
:100590000988a300070032008a81710082817100fe
:1005a000610164008904d1000884d3008b05e80050
:1005b000170037000978a30013003a000b00e00091
:1005c000130034008b05e9000804440089844c00c2
:1005d0000a4474000978a3000d003a000b00e00003
:1005e000070034008b05e9000804440089844c00ae
:1005f00001003a000b0020000978a300f7ff320049
:100600000001eb0002003700828171000a017800ce
:10061000690007000cf0a70001f0a000b20037004d
:100620006420e10002003a00838f6c00b2003300c6
:100630000801be000200be00ab003700889fbe006c
:100640008a9fbe008c1f7800960007009d00330033
:1006500003866c006450e1002e0032006420e1004b
:10066000330032006150e1002f0032006120e100d0
:100670003100320085855500eb07b00009002000ed
:1006800008042000050037000804440089844c0059
:100690000a0031000603430087834b00000153002a
:1006a00081815b00f8ff33000203be000800a00058
:1006b0000804440089844c00f6ff3900c639dd0087
:1006c0008301730001003200130020008904d1006f
:1006d0000884d3000998a300050032000800a70091
:1006e0000300a0008904d1000884d3008b05e80032
:1006f0008904d1000884d3000001eb000281d200fc
:100700002d00070001f0a1000cf0a70001f0a000ef
:10071000750037006420e100770032000801be0058
:100720000200be00f7ff37006120e10072003200d6
:100730006000b800f3ff37000000200001f8270038
:10074000f0ff37000001be00410007000470a70061
:1007500003f0a10003f8a30013003a006509b100fb
:1007600010003200090035006928e1000200350060
:1007700001002800000005000000400081804800c2
:100780008502e900fcff3a0000000600f88f4200f5
:10079000050035008100d1000080d3008502e8000b
:1007a000fcff3a00000006008000eb00000005009e
:1007b0006011b8008700370081002000618055007b
:1007c0000b003d000b00200061fe2f000100e10046
:1007d0001d00340082817100610164008904d10030
:1007e0000884d3000000e800faff3a0071002000fe
:1007f0006100640003007000020060000900320024
:1008000061044400e0844c000988a5000500320022
:100810008b05e8006808e10002003a008904d10075
:100820000884d300f20f20000258e10005003d00cb
:10083000c75ddd00f907b200898075000800780007
:10084000000006000bf827008b0078000000050070
:10085000c70ade00f107b200f50fb200080032004f
:10086000e1cf4200020032000170a0002400050028
:10087000810f7000010032000408050044000500eb
:10088000810f700002003a00140005008502e900a3
:100890000000400081c04800fcff3b000170a00048
:1008a000240005000004be00e9ff07000003be00ad
:1008b0000405be000200be00e5ff0700844f75007e
:1008c000000006000200be006450e1000500360092
:1008d0006420e100020036000968a30001003a002c
:1008e0000800be000160a0004f0678004f05be0062
:1008f0004f04be0000000600f0ff2f00f1ff2700ac
:10090000f9ff3700889fbe008a9fbe008c1f7800c9
:10091000e4ff0700ebff330003866c006450e10046
:10092000240032006420e100270032006150e10021
:10093000220032006120e100210032008b8542005c
:10094000eb07b1000134b800003ab80008044200d7
:1009500089844a00013ab8000030b800888040001d
:1009600009014a0004003300000040008180480073
:10097000020149008b05e900c909dd00830170000f
:100980000100320013002000c814de004814dd000e
:100990004709de001200b200c808de0008847000bb
:1009a00085ff070001f0a1000cf0a70001f0a000f6
:1009b000cdff37006120e100cfff32000801be000b
:1009c0000200be00f7ff37006150e100fcff3a0073
:1009d000c9ff3700889fbe008a9fbe00008270005a
:1009e0000402710004827100260032000004be007f
:1009f0000200be006011b8006b09200095022000c3
:100a00000182cf000a0039000541b1000082cf0009
:100a1000070039000541b1000982cf000400390008
:100a20000541b1000882cf00010039000541b10045
:100a300005425200120032000a003b008281710020
:100a4000610164008100d1000080d3008984d3005b
:100a50000884d3008b05e8000442e800f7ff3a0061
:100a6000070037000804440089844c000000480057
:100a7000818048008b05e9000442e900f9ff3a0053
:100a80004dff07004f05be004f04be0000000600ea
:100a90008001780002003700b15978000201e900b6
:0c0aa0000200e000fcff3a00000006002d
:020000040000fa
:100aac0000c100008140000001c000008041000036
:100abc0001c000008041000000c100008140000026
:100acc0001c000008041000000c100008140000016
:100adc0000c100008140000001c000008041000006
:100aec0001c000008041000000c1000081400000f6
:100afc0000c100008140000001c0000080410000e6
:100b0c0000c100008140000001c0000080410000d5
:100b1c0001c000008041000000c1000081400000c5
:100b2c0001c000008041000000c1000081400000b5
:100b3c0000c100008140000001c0000080410000a5
:100b4c0000c100008140000001c000008041000095
:100b5c0001c000008041000000c100008140000085
:100b6c0000c100008140000001c000008041000075
:100b7c0001c000008041000000c100008140000065
:100b8c0001c000008041000000c100008140000055
:100b9c0000c100008140000001c000008041000045
:100bac0001c000008041000000c100008140000035
:100bbc0000c100008140000001c000008041000025
:100bcc0000c100008140000001c000008041000015
:100bdc0001c000008041000000c100008140000005
:100bec0000c100008140000001c0000080410000f5
:100bfc0001c000008041000000c1000081400000e5
:100c0c0001c000008041000000c1000081400000d4
:100c1c0000c100008140000001c0000080410000c4
:100c2c0000c100008140000001c0000080410000b4
:100c3c0001c000008041000000c1000081400000a4
:100c4c0001c000008041000000c100008140000094
:100c5c0000c100008140000001c000008041000084
:100c6c0001c000008041000000c100008140000074
:100c7c0000c100008140000001c000008041000064
:100c8c0000c100008140000001c000008041000054
:100c9c0001c000008041000000c100008140000044
:100cac0000c00000c1010000c303000002c200002c
:100cbc00c606000007c7000005c50000c4040000fc
:100ccc00cc0c00000dcd00000fcf0000ce0e0000ac
:100cdc000aca0000cb0b0000c909000008c80000bc
:100cec00d818000019d900001bdb0000da1a00002c
:100cfc001ede0000df1f0000dd1d00001cdc0000fc
:100d0c0014d40000d5150000d717000016d600002b
:100d1c00d212000013d3000011d10000d01000003b
:100d2c00f030000031f1000033f30000f23200002b
:100d3c0036f60000f7370000f535000034f40000fb
:100d4c003cfc0000fd3d0000ff3f00003efe0000ab
:100d5c00fa3a00003bfb000039f90000f8380000bb
:100d6c0028e80000e9290000eb2b00002aea00002b
:100d7c00ee2e00002fef00002ded0000ec2c0000fb
:100d8c00e424000025e5000027e70000e62600002b
:100d9c0022e20000e3230000e121000020e000003b
:100dac00a060000061a1000063a30000a26200002b
:100dbc0066a60000a7670000a565000064a40000fb
:100dcc006cac0000ad6d0000af6f00006eae0000ab
:100ddc00aa6a00006bab000069a90000a8680000bb
:100dec0078b80000b9790000bb7b00007aba00002b
:100dfc00be7e00007fbf00007dbd0000bc7c0000fb
:100e0c00b474000075b5000077b70000b67600002a
:100e1c0072b20000b3730000b171000070b000003a
:100e2c00509000009151000093530000529200002a
:100e3c0096560000579700005595000094540000fa
:100e4c009c5c00005d9d00005f9f00009e5e0000aa
:100e5c005a9a00009b5b00009959000058980000ba
:100e6c0088480000498900004b8b00008a4a00002a
:100e7c004e8e00008f4f00008d4d00004c8c0000fa
:100e8c00448400008545000087470000468600002a
:100e9c00824200004383000041810000804000003a
:020000040000fa
:100eac000000fa009163a800901c80000060a10073
:100ebc000070a100901c8800911c800000fc2f0089
:100ecc00008060003001b300901c8800a01c8000e2
:100edc000030a0000040a1000050a100a01c880020
:100eec0094e3a80094c3a900a01c80000000a000fb
:100efc000010a1000020a100a01c8800a01c8000f4
:100f0c000080a1000090a00000a0a100a01c8800ff
:100f1c000080fa00000006000400fa00000f7800c0
:100f2c00110798008e23ef008e03a9003003a9004f
:100f3c001e00780010009000c500de00f07f20003d
:100f4c00008060004200dd008219800031002e001c
:100f5c008100610001007000801988000003a90065
:100f6c001e00900010009000c500de00f07f2000f5
:100f7c00008060004200dd000218800031002e006d
:100f8c008100610001007000001888000080fa00e8
:100f9c00000006000400fa00000f7800110798000a
:100fac007e23ef00f01b80000000a1000010a000c9
:100fbc000020a100f01b88003803a8001e00780058
:100fcc0010009000c500de00f07f20000080600063
:100fdc004200dd00c219800031002e00810061004a
:100fec0001007000c01988001e0078009000780085
:100ffc00c908de00100090007f0060004700dd0093
:10100c0000807000d01988001e0078001000780055
:10101c004300de00f043b2000080fb004a00dd001c
:10102c00e2198000f13f2000810061000100700096
:10103c00e01988001003a8001e009000100090001a
:10104c00c500de00f07f2000008060004200dd0063
:10105c008218800031002e008100610001007000b8
:10106c00801888001e00900090007800c908de00ef
:10107c00100090007f0060004700dd0000807000d1
:10108c00901888001e009000100078004300de00cd
:10109c00f043b2000080fb004a00dd00a218800083
:1010ac00f13f20008100610001007000a018880051
:1010bc000080fa00000006000800fa0020079800e3
:1010cc00310798000000eb00000f78000000eb00e7
:1010dc00100798009623ef008760a900f00f2000fe
:1010ec00c01c88008f60a800801c80000080a100bc
:1010fc000090a10000a0a000801c880068ff0700e1
:10110c00be0090002e00900083ff0700be009000f0
:10111c002e0090009fff0700801c80000080a10023
:10112c000090a00000a0a100801c88000000eb0033
:10113c00000f7800a00a200010079800100037005c
:10114c00000a200001002000050b07000060fe00d3
:10115c0010c0b300813e20001e017800810f5100a9
:10116c0001003e000040eb001e0fe8000004e00010
:10117c00030032000000eb00100798000600370057
:10118c00811c8000000e2000808060000004200084
:10119c00808f5000eaff3a00682def001e0090008f
:1011ac000080fa00000006000800fa0020079800f2
:1011bc00310798000000eb00000f78000000eb00f6
:1011cc00100798009623ef008760a900f00f20000d
:1011dc00c01c88008f60a800801c80000080a100cb
:1011ec000090a10000a0a000801c88009163a900c1
:1011fc00901c80000060a1000070a100901c880071
:10120c00911c800000fc2f00008060003001b300b6
:10121c00901c8800a01c80000030a1000040a000a1
:10122c000050a000a01c880094e3a80094c3a9005f
:10123c00a01c80000000a0000010a1000020a10054
:10124c00a01c8800a01c80000080a0000090a100c1
:10125c0000a0a000a01c88008e23ef008e03a90024
:10126c003003a9008119800030002e00008060003e
:10127c00801988000003a9000118800030002e009e
:10128c00008060000018880098a3a80096a3a9000d
:10129c00801c80000080a1000090a10000a0a10093
:1012ac00801c88000000eb00000f7800a00a2000d2
:1012bc001007980010003700000a200001002000e1
:1012cc00a70a07000060fe0010c0b300813e20009a
:1012dc001e017800810f510001003e000040eb0020
:1012ec001e0fe8000004e000030032000000eb00d9
:1012fc001007980005003700811c8000000e2000ac
:10130c00008060000000e000ebff3a001e0090003f
:10131c000080fa00000006000600fa002047980042
:10132c00210798000040eb00004f78000040eb00d4
:10133c00104798002e4090000004e000520032004c
:10134c002e409000e84f50004f003e002e40900081
:10135c006f4060000080fb006f0060004300dd0008
:10136c00221b800071f82f008100610001007000c9
:10137c00201b88006523a900701b80000000a000c2
:10138c000010a000701b88000040eb00004f78009c
:10139c000040eb0010479800320037001e409000d0
:1013ac000080fb00e10f500012003200e10f5000f2
:1013bc0003003c000000e00006003200250037006e
:1013cc00e20f500013003200e30f500019003200fe
:1013dc00200037001e4090000080fb00ae00900003
:1013ec00000040000080400010007800301b880096
:1013fc00180037001e4090000080fb00ae009000eb
:10140c00000040000080400010007800401b880065
:10141c00100037001e4090000080fb00ae009000d2
:10142c00000040000080400010007800501b880035
:10143c00080037001e4090000080fb00ae009000ba
:10144c00000040000080400010007800601b880005
:10145c00000000001ecfe8001e4090000040e80095
:10146c00104798002e4090009e40780080cf50008e
:10147c00caff3900201b80004300de006f40600073
:10148c0020479800020037000040eb0020479800ee
:10149c002e4090000080fa00000006000600fa00c2
:1014ac0020479800210798000040eb00004f78007f
:1014bc000040eb00104798002e4090000004e00024
:1014cc00520032002e409000e84f50004f003e007a
:1014dc002e4090006f4060000080fb006f006000a9
:1014ec004300dd00a21a800071f82f00810061001a
:1014fc0001007000a01a88005523a900f01a800082
:10150c000000a1000010a000f01a88000040eb00c1
:10151c00004f78000040eb00104798003200370075
:10152c001e4090000080fb00e10f500012003200c2
:10153c00e10f500003003c000000e0000600320008
:10154c0025003700e20f500013003200e30f50006b
:10155c0019003200200037001e4090000080fb0074
:10156c00ae009000000040000080400010007800a9
:10157c00b01a8800180037001e4090000080fb0055
:10158c00ae00900000004000008040001000780089
:10159c00c01a8800100037001e4090000080fb002d
:1015ac00ae00900000004000008040001000780069
:1015bc00d01a8800080037001e4090000080fb0005
:1015cc00ae00900000004000008040001000780049
:1015dc00e01a8800000000001ecfe8001e409000ba
:1015ec000040e800104798002e4090009e40780084
:1015fc0080cf5000caff3900a01a80004300de00e3
:10160c006f40600020479800020037000040eb005c
:10161c00204798002e4090000080fa000000060041
:10162c000600fa0020479800210798000040eb00c4
:10163c00004f78000040eb00104798002e409000bf
:10164c000004e000520032002e409000e84f5000a1
:10165c004f003e002e4090006f4060000080fb0069
:10166c006f0060004300dd00221a800071f82f002b
:10167c008100610001007000201a88004523a90038
:10168c00701b80000000a0000010a100701b8800df
:10169c000040eb00004f78000040eb001047980032
:1016ac00320037001e4090000080fb00e10f50001c
:1016bc0012003200e10f500003003c000000e0007b
:1016cc000600320025003700e20f500013003200f4
:1016dc00e30f500019003200200037001e4090002c
:1016ec000080fb00ae009000000040000080400035
:1016fc0010007800301a8800180037001e40900047
:10170c000080fb00ae009000000040000080400014
:10171c0010007800401a8800100037001e4090001e
:10172c000080fb00ae0090000000400000804000f4
:10173c0010007800501a8800080037001e409000f6
:10174c000080fb00ae0090000000400000804000d4
:10175c0010007800601a8800000000001ecfe8001e
:10176c001e4090000040e800104798002e4090006a
:10177c009e40780080cf5000caff3900201a8000ac
:10178c004300de006f4060002047980002003700e5
:10179c000040eb00204798002e4090000080fa009b
:1017ac00000006000600fa00000f780011079800f0
:1017bc0042479800701b8000680060000000e00049
:1017cc00130032000060fe0000d027000100200052
:1017dc00630907000060fe0000d027000100200014
:1017ec005f0907000060fe0000d027000100200008
:1017fc005b0907000060fe00701b80006800600041
:10180c000000e0000200320000c0eb0012013700c3
:10181c004e409000e84f50000e013e004e409000ac
:10182c000004e0000b0132006003a9006023a90052
:10183c001e0078004600de00004078007f4060000b
:10184c007f4060007f4060000080fb004b00dd00ab
:10185c00021b8000f17f20008100610001007000fc
:10186c00001b88001e00780000407800f043b20096
:10187c00f043b200f043b2008080fb00f003200084
:10188c00008060004200dd00021b800031f02f0060
:10189c008100610001007000001b88004e40900028
:1018ac006f4060000080fb006f0060004300dd00b3
:1018bc00221b800071f82f00810061000100700074
:1018cc00201b88006523a900701b80000000a0006d
:1018dc000010a000701b88000060fe004e409000bd
:1018ec000080fb00e40f500032003200e40f500087
:1018fc0007003c00e20f500013003200e20f5000d2
:10190c001c003c00e10f50000a003200cd003700f3
:10191c00e60f500058003200e60f50003b00350037
:10192c00e70f500075003200e80f500099003200ac
:10193c00c40037001e009000104078000080fb00af
:10194c00301b8800bf0037001e0090000000e8002c
:10195c00104078000080fb00c800dd001e009000e5
:10196c00104078000080fb0001007000301b8800e4
:10197c00b40037001e0090000000e8001040780012
:10198c000080fb00c800dd001e00900010407800b5
:10199c000080fb0001007000301b88001e009000ce
:1019ac000080e800104078000080fb00401b88009d
:1019bc00a40037001e0090000000e80010407800e2
:1019cc000080fb00c800dd001e0090001040780075
:1019dc000080fb0001007000301b88001e0090008e
:1019ec0063004000104078000080fb00c800dd0060
:1019fc001e0090000080e800104078000080fb0082
:101a0c0001007000401b88008e0037001e00900003
:101a1c000000e800104078000080fb00c800dd00ea
:101a2c001e009000104078000080fb000100700048
:101a3c00301b88001e0090006300400010407800ae
:101a4c000080fb00c800dd001e0090000080e80054
:101a5c00104078000080fb0001007000401b8800e3
:101a6c001e00900064004000104078000080fb00d5
:101a7c00501b8800730037001e0090000000e80027
:101a8c00104078000080fb00c800dd001e009000b4
:101a9c00104078000080fb0001007000301b8800b3
:101aac001e00900063004000104078000080fb0096
:101abc00c800dd001e0090000080e8001040780097
:101acc000080fb0001007000401b88001e0090008d
:101adc0065004000104078000080fb00c800dd006d
:101aec001e00900064004000104078000080fb0055
:101afc0001007000501b8800520037001e0090003f
:101b0c000000e800104078000080fb00c800dd00f9
:101b1c001e009000104078000080fb000100700057
:101b2c00301b88001e0090006300400010407800bd
:101b3c000080fb00c800dd001e0090000080e80063
:101b4c00104078000080fb0001007000401b8800f2
:101b5c001e00900065004000104078000080fb00e3
:101b6c00c800dd001e0090006400400010407800aa
:101b7c000080fb0001007000501b88001e009000cc
:101b8c0066004000104078000080fb00601b88005d
:101b9c002c0037001e0090000000e8001040780078
:101bac000080fb00c800dd001e0090001040780093
:101bbc000080fb0001007000301b88001e009000ac
:101bcc0063004000104078000080fb00c800dd007e
:101bdc001e0090000080e800104078000080fb00a0
:101bec0001007000401b88001e0090006500400042
:101bfc00104078000080fb00c800dd001e00900043
:101c0c0064004000104078000080fb000100700070
:101c1c00501b88001e0090006700400010407800a8
:101c2c000080fb00c800dd001e0090006600400034
:101c3c00104078000080fb0001007000601b8800e1
:101c4c00000000000060fe006e63a8000040eb0086
:101c5c000100370000c0eb000080fa000000060015
:101c6c000400fa00100798000040eb00004f7800c9
:101c7c001e00900020409000e74f500041003600bd
:101c8c00711c800000082000008060000000e00053
:101c9c003e003200701c8000680060000000e00014
:101cac003a003a00201c8000004078006f40600031
:101cbc00004f78001e00900010007800311c80004e
:101ccc0081407800014878001e00900010007800d8
:101cdc000000e800311c8000c808de00814078005c
:101cec00014878001e009000100078000080e80089
:101cfc00411c800081407800014878001e00900053
:101d0c001000780063004000411c8000c808de0011
:101d1c0081407800014878001e0090001000780087
:101d2c0064004000511c800081407800014878001c
:101d3c001e0090001000780065004000511c8000cf
:101d4c00c808de0081407800014878001e00900031
:101d5c001000780066004000611c80008140780013
:101d6c00014878001e0090001000780067004000c9
:101d7c00611c8000c808de008140780001487800b2
:101d8c00020037000040eb00004f78008ee3a90002
:101d9c001e4078000080fa00000006000200fa00e5
:101dac00000f7800001c80004200de00f17f200054
:101dbc00010060009e0078004500dd0011019000dc
:101dcc007f0161000200700090009800111c8000df
:101ddc00f0ff2000808060001e007800f2072000d9
:101dec00028160004911dd0010027800f31f200011
:101dfc00830162000301710002087800c708de004d
:101e0c00ff806000ff8060009001900002fe2f00b8
:101e1c00028161008280700011009800201c8000fb
:101e2c004a00de00804078001e0078000181fb0033
:101e3c00f103200081006100c308dd0090017800ef
:101e4c0072e02f000281610082807000010878002e
:101e5c000080fa00000006003600f800809fbe00eb
:101e6c00829fbe00849fbe00869fbe000400fa00c5
:101e7c008760a900b01c8000640060000000e000d6
:101e8c00020032009643a90005003700b01c800008
:101e9c00680060000000e000010032009663a900b9
:101eac00b01c8000610060000000e00016003200f1
:101ebc009603a900001c80004200de00f17f200088
:101ecc0001006000c06b8800201c8000004078007e
:101edc006f40600082edb70080c0b30020479800cf
:101eec00a0d72000000f78000e0078005cff0700e0
:101efc0010002000406c880080d720008e06070060
:101f0c00682def0005003700b01c800062006000f7
:101f1c000000e000010032009623a900b11c8000f3
:101f2c0000002200008060000000e0000800320089
:101f3c00b11c800000022000008060000000e00066
:101f4c000300320096a3a900100a2000406b880001
:101f5c00b11c800000022000008060000000e00046
:101f6c000300320096a3a900200a2000406b8800d1
:101f7c00b11c800000082000008060000000e00020
:101f8c000300320096e3a900300a2000406b880061
:101f9c009623ef000080fa004f03be004f02be00f4
:101fac004f01be004f00be003600f9000040060095
:101fbc000000fa00886bef00896cef008a6cef0070
:101fcc0000c0eb00a4edb70010cab300a5edb7003c
:101fdc008b6cef00dd6cef00dc6cef000080fa0026
:101fec00000006000200fa00004f780088cbbf000a
:101ffc0088cbbf000040e80088ebb7008accbf005c
:10200c008080fb0090b82000008040001e487800c3
:10201c008accbf000080fb008000e800001020008c
:10202c0000017800110009008200d8008000fd003a
:10203c00004078008aecb70000c0eb000080fa008a
:10204c00000006000200fa00000f78008d20a900a5
:10205c0088cbbf000004e0001700320088cbbf0023
:10206c000040e90088ebb70089ccbf008080fb0002
:10207c0090b8200000804000904078001e0078004e
:10208c000148780089ccbf000080fb008000e8008c
:10209c000010200000017800110009008200d80017
:1020ac008000fd000040780089ecb7008d20a8006e
:1020bc0000c0eb00020037008d20a8000040eb00b0
:1020cc000080fa00000006001200fa007007980069
:1020dc00010f98000060fe00e2c2a90021048000fc
:1020ec0000042000008060000000e00002003200cc
:1020fc00a40507008b6cef00a4cdbf00e14f40009e
:10210c0003003200aaff07000040eb00aa003700d2
:10211c000060fe0088cbbf000004e000a400320089
:10212c008bccbf000080fb00e10f50001f00320081
:10213c00e10f500003003c000000e00006003200fc
:10214c0096003700e20f50002a003200e30f5000d7
:10215c003e003200910037000040eb0060479800d1
:10216c000060fe000e0890008040eb00614098007b
:10217c0066004700b3ff07000060fe007e00900081
:10218c00904078006e40900080cf500087003a005d
:10219c00ee4090000e0890000148780010c0b3008b
:1021ac008becb7006f050700810037000060fe0064
:1021bc000040eb007047980067004700a1ff070044
:1021cc00fe4090000e08900011409800fe409000d8
:1021dc0050c5b30080cf500003003a0020c0b300bc
:1021ec008becb70072003700660507008b6cef00b4
:1021fc006f0037000060fe000040eb00004f9800bd
:10220c00680047008fff07000e489000ea4f50000f
:10221c000b003e000e4890000004e0000800320065
:10222c008e4890000e0890002140980030c0b300fa
:10223c008becb70030c0b300ddecb7005c003700ae
:10224c008b6cef00dd6cef00590037000060fe0076
:10225c00ddccbf000081fb00c1c820008100410023
:10226c000040e800ddecb7000100780075ff0700c6
:10227c00d1cd20009140780000c4b30080cf500035
:10228c000400360030c0b300ddecb7008b6cef00ff
:10229c00410037000060fe000e089000a040900046
:1022ac00014f7800ddccbf008080fb001e80fb005e
:1022bc0065004000808f5000330035000e08900000
:1022cc00104078008cecb7000e0890001040900085
:1022dc008decb7009e407800e2c8200001497800e0
:1022ec000060fe00c0c82000500798001e41780016
:1022fc0063404100404f98006a00470018060700f1
:10230c00100798000060fe001e80fb00e3004000f8
:10231c00c0c82000008040009040780041479800e1
:10232c001e80fb00e4004000c0c82000008040007c
:10233c0010417800524798000060fe005e4090000b
:10234c000080fb00c800dd004e4090000080fb00c8
:10235c00810070001e009000808f500006003a0033
:10236c000e089000c1c82000210098000e089000b3
:10237c0080c0eb00614098000060fe000105070082
:10238c008b6cef000400370088cbbf000004e0002a
:10239c00afff3a0006003700050037008b6cef00ea
:1023ac0030c0b300ddecb7000100370000000000c6
:1023bc000060fe0088cbbf000080fa000000060021
:1023cc000e00fa0050079800610798000060fe00ac
:1023dc00e2c2a900210480000004200000806000fb
:1023ec000000e00002003200e60407008b6cef00f6
:1023fc00a4cdbf00e14f400003003200ecfe07000b
:10240c000040eb00950037000060fe0088cbbf0059
:10241c000004e0008f0032008bccbf000080fb007a
:10242c00e10f50001f003200e10f500003003c0090
:10243c000000e000060032007f003700e20f500081
:10244c0023003200e30f50002e0032007a003700d8
:10245c000040eb00604798000060fe006e009000aa
:10246c008040eb006140980066004700f5fe0700d5
:10247c000060fe005e009000904078006e4090007e
:10248c0080cf500070003a00ee4090006e0090003b
:10249c000148780010c0b3008becb700b104070002
:1024ac006c0037000060fe000040eb0070479800a5
:1024bc0067004700e3fe0700fe4090006e009000ae
:1024cc001140980020c0b3008becb70061003700be
:1024dc000060fe000040eb00004f980068004700d1
:1024ec00d8fe07008e4890006e00900021409800a6
:1024fc0030c0b3008becb70030c0b300ddecb700dc
:10250c00540037000060fe00ddccbf000081fb00f2
:10251c00c1c82000810041000040e800ddecb7009c
:10252c0001007800c7fe0700d1cd20009140780053
:10253c0000c4b30080cf50000400360030c0b3009c
:10254c00ddecb7008b6cef00420037000060fe0042
:10255c006e009000a0409000014f7800ddccbf00d1
:10256c008080fb001e80fb0065004000808f5000c7
:10257c00370035006e009000104078008cecb700ee
:10258c006e009000104090008decb7009e407800db
:10259c00e2c82000014978000060fe001e4178006e
:1025ac006340410080407800c0c820003f05070010
:1025bc00100798000060fe001e80fb00e300400046
:1025cc00c0c820000080400090407800414798002f
:1025dc001e80fb00e4004000c0c8200000804000ca
:1025ec0010417800524798000060fe005e40900059
:1025fc000080fb00c800dd004e4090000080fb0016
:10260c00810070001e009000808f500006003a0080
:10261c006e009000c1c82000210098006e00900050
:10262c0080c0eb00614098000060fe00550407007c
:10263c008b6cef00070037008b6cef0030c0b300e1
:10264c00ddecb7000300370000000000010037008c
:10265c00000000000060fe0088cbbf000080fa0084
:10266c00000006001000fa006047980071479800bf
:10267c0042079800234f980064079800750798004c
:10268c002e48900065404000204798007e00900046
:10269c00ae409000014878006e009000ee40900033
:1026ac00014878006e0090000000e800fe409000a9
:1026bc00014878006e0090000080e800ae48900061
:1026cc00014878000060fe000000eb00000f78006d
:1026dc000000eb00000f78000b0037000060fe00dc
:1026ec001e00780063004000ee0090000080400067
:1026fc009e0078004e0190008100410091407800ce
:10270c00014878001e0fe8002e4890000080fb0066
:10271c009e0f5000f1ff3c000060fe002e40900028
:10272c0000c0e900804078006e009000df040700d4
:10273c00200798002e4090000080fb000080e900ec
:10274c00ee00900000804000ae00900081407800c8
:10275c00014878002e4090000080fb000000e9004a
:10276c00ee00900000804000ae00900081407800a8
:10277c00014878000060fe00dc6cef000080fa007d
:10278c00000006001400fa00204f9800314f98000a
:10279c0062079800634f9800040f9800150f98007b
:1027ac006e48900065404000204798001e0890003d
:1027bc00ae409000014878000e089000ae489000a2
:1027cc00014878000e0890000000e800be48900018
:1027dc00014878000e0890000080e800ee48900058
:1027ec00014878000060fe000000eb00000f78004c
:1027fc000000eb00000f78000b0037000060fe00bb
:10280c001e007800630040008e089000008040009d
:10281c009e0078006e01900081004100914078008c
:10282c00014878001e0fe8006e4890000080fb0005
:10283c009e0f5000f1ff3c000060fe008e089000df
:10284c00310798002e40900000c0e900004f98001e
:10285c0066004700c2040700200798002e40900035
:10286c000080fb000080e9008e0890000080400092
:10287c00ae00900081407800014878002e40900016
:10288c000080fb000000e9008e08900000804000f2
:10289c00ae009000c808de00814078000148780046
:1028ac000060fe00dc6cef000080fa000000060007
:1028bc000600fa0010079800414798000040eb0012
:1028cc00004f7800e2c2a8000060fe0000f4210076
:1028dc0001002000220507000060fe000040eb0014
:1028ec00004f7800070037000060fe001e80fb00e0
:1028fc009e009000008040001040780034020700d9
:10290c001e4fe8004e4090009e40780080cf500053
:10291c00f5ff3900e2c2a9000080fa0000000600b1
:10292c000a00fa000040eb00604798000060fe00cf
:10293c000010270021002000090507000060fe00a0
:10294c000010270021002000050507000060fe0094
:10295c000010270021002000010507000060fe0088
:10296c000010270021002000fd0407000060fe007d
:10297c000010270021002000f90407000060fe0071
:10298c000010270021002000f50407000060fe0065
:10299c000010270021002000f10407000060fe0059
:1029ac000000eb00000f78006000b80010079800e2
:1029bc0021079800b80407000060fe0010002000fa
:1029cc00a30307000060fe005c0107000060fe002e
:1029dc00e2c2a8000014200001002000e00407005f
:1029ec00a0cab300fa0107000060fe0050c5b30096
:1029fc00f70107000060fe00a0cab300f401070055
:102a0c00e2c2a9000060fe0040062000340307006b
:102a1c000060fe0066fd0700e0d1200011cab30083
:102a2c00014878000060fe00602def00622def0081
:102a3c00642def00662def000000eb00000f780016
:102a4c00b30307008000eb000000eb00d6f9070091
:102a5c0080d42000e06a88000100370000000000ec
:102a6c0061d22000e0d1200097fd0700604798005c
:102a7c000060fe0060d2200060409000e14f4000fa
:102a8c0036003a00642def00662def0050168000e2
:102a9c000000d1006140600011c0b30000c05000c4
:102aac00614060000080fb0061006000000040009d
:102abc0052168000d1ff2f008100610001007000d0
:102acc005016880060d22000200090006300400067
:102adc00104078008080fb0060d220002000900025
:102aec0064004000104078000080fb004800dd00ce
:102afc000100700040079800ce009000100f2000dd
:102b0c00808f500001003a00a00007000060fe001a
:102b1c0060d220002040900080c0e90060d22000ec
:102b2c002000900065004000014178008000780092
:102b3c004e0090001bfb0700604798006e40900011
:102b4c000004e000020032000000fe000300370029
:102b5c0060d220008040eb00614098000060fe00d5
:102b6c00e0d22000a4030700604798000060fe003c
:102b7c006e4090000004e0002c003200602def004d
:102b8c00622def000060fe00501680004200de0057
:102b9c006140600011c0b30000c050006140600093
:102bac000080fb00610060004200dd0052168000d6
:102bbc00b1ff2f00810061000100700050168800e9
:102bcc0038cdbf008080fb00e0d3200001017800ed
:102bdc0001d32000abf7070070698000004078003b
:102bec003cedb700706980004800de0000407800c2
:102bfc003dedb7000060fe00e16a800038cdbf00fb
:102c0c0000c0e800e5d52000010278008041780082
:102c1c00c2d32000a1cab300a0c1b300d9fe0700e3
:102c2c000060fe00c0d520006f0107000060fe00b0
:102c3c0010c0b300017122001e017800810f5100f9
:102c4c0001003e000040eb001e0fe8000004e00015
:102c5c000f00320050168000004078006140600088
:102c6c0011c0b30000c05000614060000080fb0048
:102c7c006100600052168000e1ff2f0081006100ae
:102c8c0001007000501688000000eb00000f780067
:102c9c0014c0b3001e019000ae019000007c220015
:102cac0091002000800f5100818f590001003e00df
:102cbc000042eb001e009000ae009000610040004e
:102ccc00e080480010079800210798000404e000f9
:102cdc00040032002d0007006000b80010079800b7
:102cec0021079800006b8000116b800014c0b300aa
:102cfc00026c2c00d3022000820f5000838f5800ee
:102d0c0001003e000042eb0061004000e080480002
:102d1c00006b8800116b88000404e0000100320095
:102d2c000000fe00206b8000316b800014c0b300eb
:102d3c00026c2c00d3022000820f5000838f5800ad
:102d4c0001003e000042eb0061004000e0804800c2
:102d5c00206b8800316b88000404e0000100320015
:102d6c000000fe000060fe00b11c8000000022008c
:102d7c00008060000000e00038ff32008000eb00b3
:102d8c000000eb0008f9070035ff37000000fa00df
:102d9c0010cfb3003cedb7003d6def0010c9b30090
:102dac003eedb700a0cab3003fedb700b01c8000e9
:102dbc000040780040edb700b01c80004800de00f9
:102dcc000040780041edb700d01c80000040780036
:102ddc0042edb700d01c80004800de0000407800b7
:102dec0043edb700446def00456def000060fe0051
:102dfc00e06a8000e5d5200000027800a3c0b30093
:102e0c00c2d32000a1cab300a0c1b3005dfe07006d
:102e1c00c0d52000f4000700b11c80000000280081
:102e2c00008060000000e0000200320097e3a9007f
:102e3c008ee3a900b11c800000002400008060001b
:102e4c000000e0000200320097c3a9007ee3a90055
:102e5c000080fa00000006000600fa002007980027
:102e6c006000b800008fbe000de2a9000da2a90001
:102e7c000ce2a9000cc2a9000ca2a90060108000f1
:102e8c000010a1000020a100601088000c02a90015
:102e9c000d42a8002e0090004400dd008000eb00e5
:102eac0040f607000001be000040220041b724009c
:102ebc00dff507000200200003f823007ef5070071
:102ecc00008fbe0070062000a01088000f62a900c1
:102edc000f42a9000f22a9000f02a9007010800058
:102eec000060a1000070a100701088000ea2a90063
:102efc000e82a9000e62a9000e42a9000e22a900a2
:102f0c000e02a9008540a9008520a9008d20a800eb
:102f1c000de2a8000f42a8000080fa000000060095
:102f2c000000fa00cda2a800cdc2a900dec2a90003
:102f3c00e2c2a9000080fa00000006000000fa00be
:102f4c00f7ff070010002000c3ff07000080fa0005
:102f5c00000006000200fa00004f78000080fa0022
:102f6c00000006000600fa00200798006000b80078
:102f7c00008fbe0017e2a9000000000017a2a900f4
:102f8c0016e2a90016c2a90016a2a900b010800072
:102f9c000010a1000020a100b01088001602a900aa
:102fac002e0090004400dd008000eb00fdf50700d2
:102fbc000001be000040220041b724009cf5070030
:102fcc000200200003f823003bf50700008fbe0031
:102fdc0000582200f01088001962a9001942a900bb
:102fec001922a9001902a900c01080000060a100dc
:102ffc000070a100c010880018a2a9001882a900b6
:10300c001862a9001842a9001822a9001802a900e8
:10301c008720a9008700a9008f00a80017e2a8004c
:10302c001942a8000080fa00000006000000fa0017
:10303c00de82a800dea2a9000080fa0000000600d3
:10304c000200fa00004f7800e2c2a800000a20003b
:10305c0001002000420307001e80fb00d0108800f6
:10306c00010037000060fe00c1108000001020003d
:10307c00008060000000e000faff3200000a20002f
:10308c000100200036030700e2c2a9000080fa000c
:10309c00000006000400fa00100798000040eb0046
:1030ac00004f7800e2c2a80000642000010020005c
:1030bc002b0307000060fe000040eb00004f78007f
:1030cc00100037000060fe001e0090009000780099
:1030dc001e80fb0000804000104078000080fb0048
:1030ec00d0108800010037000060fe00c110800085
:1030fc0000102000008060000000e000faff3200a9
:10310c001e4fe8001e009000204090009e4f500083
:10311c00ecff3e00006420000100200010030700bb
:10312c00e2c2a9000080fa00000006000200fa00ca
:10313c00004f78001e80fb008010880001003700d3
:10314c000060fe0071108000001020000080600004
:10315c000000e000faff32000080fa0000000600d8
:10316c000400fa00100798000040eb00004f7800b4
:10317c000040eb00004f78000f0037000060fe00ad
:10318c001e009000900078001e80fb000080400024
:10319c00104078000080fb008010880000000000c8
:1031ac007110800000102000008060000000e00022
:1031bc00fbff32001e4fe8001e00900020409000e4
:1031cc009e4f5000edff3e000080fa00000006000c
:1031dc000200fa00004f78001e407800d3ff070071
:1031ec000080fa00000006000200fa00000f7800d0
:1031fc001e007800daff07000080fa0000000600cd
:10320c003600f800809fbe00829fbe00849fbe00e7
:10321c00869fbe000000fa000060fe008520a90019
:10322c0090108000004078006efb0700a4edb70002
:10323c000080fa004f03be004f02be004f01be00db
:10324c004f00be003600f900004006000000fa00f6
:10325c008540a9000080fa00004006003600f80006
:10326c00809fbe00829fbe00849fbe00869fbe00d2
:10327c000000fa000060fe008700a900e01080004a
:10328c000040780057fb0700a4edb7000080fa005f
:10329c004f03be004f02be004f01be004f00be00e8
:1032ac003600f900004006000000fa008720a90053
:1032bc000080fa00004006000800fa001007980091
:1032cc0021079800320798000040eb00004f78006f
:1032dc000060fe00ff3ffc00220020001e0090005a
:1032ec00ae00900031f407000060fe000040eb00df
:1032fc00004f78000e0037000060fe00ff3ffc001e
:10330c0000642000010020009502070010c0b300eb
:10331c0081ccb3001e417800814f510001003e006a
:10332c000040eb001e4fe8000004e00006003a00ed
:10333c00013b800000002800008060000000e000dd
:10334c00edff3a000100370000000000ff3ffc00d9
:10335c003e00900010007800000178001e009000e4
:10336c00ae0090002af40700ff3ffc000060fe0056
:10337c000040eb00004f78000e0037000060fe00ac
:10338c00ff3ffc00006420000100200074020700d5
:10339c0010c0b30081ccb3001e417800814f5100a6
:1033ac0001003e000040eb001e4fe8000004e0006e
:1033bc0006003a00013b80000000280000806000fd
:1033cc000000e000edff3a000100370000000000b3
:1033dc000000fc000080fa00000006000600fa0065
:1033ec00008fbe00220798000060fe00ff3ffc002b
:1033fc000002eb00230020002e0190001e00be00f6
:10340c0012f407000000fc000080fa000000060027
:10341c000c00fa00004f9800510798000000eb00d8
:10342c00300798000040eb00004f78000e489000e9
:10343c000080fb004200dd006101b90000c02f00dc
:10344c00f10720000200400083804800100798001c
:10345c00210798000040eb00004f78001e00370059
:10346c001e81fb008001eb001e009000ae0090005e
:10347c00020040008380480066014700d7ff070028
:10348c005e009000900078001e80fb0000804000e1
:10349c00be00900081407800014878005e009000ea
:1034ac0020409000614060000004e00009003a00f8
:1034bc005e009000900078001e80fb000000e80089
:1034cc0000804000be009000c808de0081407800fb
:1034dc00014878001ecfe8005e009000204090006c
:1034ec009e4f5000deff3e000080fa0000000600f8
:1034fc000e00fa00204f9800610798000000eb00c6
:10350c00300798000000eb00400798000040eb00eb
:10351c00004f78002e4890000080fb004200dd0038
:10352c006101b90000c02f00f1072000020040002b
:10353c008380480010079800210798000040eb009a
:10354c00004f7800300037006e0090002040900053
:10355c00614060000004e0000c003a001e80fb009b
:10356c00ee009000110178009e80fb008100e800c5
:10357c0081004100914078008180fb0000004000f8
:10358c000000470066004000010878001e80fb0028
:10359c009e80fb0081804000660147008100410055
:1035ac00910078004809dd00ee0090009101780050
:1035bc009e80fb0081804100914078008180fb005f
:1035cc008280700000004000000047006600400050
:1035dc00010878001e80fb0000004000e600470058
:1035ec00008240001e81fb008001eb001e00900059
:1035fc00ae00900002004000838048000401780077
:10360c002dff07001ecfe8006e00900020409000b8
:10361c009e4f5000ccff3e000080fa0000000600d8
:10362c000200fa00000f78000060fe000421ef0099
:10363c00a004800000c0a00000d0a00000e0a0000a
:10364c00a00488008460a900a004800000c0a10030
:10365c0000d0a10000e0a000a00488002008800099
:10366c000040a1000050a000200888000421a900ff
:10367c0004c1a9008460a9000021ef001e0078009d
:10368c008000eb0047f4070002002000a337240061
:10369c0099f4070028f40700000078000000e90006
:1036ac00100888000080fa00000006000000fa00f4
:1036bc008c60a80005e1a8000080fa00000006005c
:1036cc000000fa000421ef000021ef000221ef00be
:1036dc008460a9008c60a9000080fa00000006003c
:1036ec000200fa00000f78000060fe00b0048000b9
:1036fc000080a1000090a10000a0a100b0048800ef
:10370c0011e1a900800880000040a0000050a0003a
:10371c00800888001021a90010c1a90084c0a9004c
:10372c008cc0a9000621ef001e0078008000eb0081
:10373c001cf4070002002000a32724006ef40700ed
:10374c00fdf30700000078000000e9006008880025
:10375c0060088000c06c880011e1a9000080fa00ac
:10376c00000006000000fa0084c0a9000621ef004a
:10377c00c06c80006008880011e1a8000080fa008d
:10378c00000006000000fa0011e1a90084c0a900a5
:10379c000080fa00000006000200fa00000f78001a
:1037ac000060fe00b004800000c0a00000d0a100aa
:1037bc0000e0a100b004880013e1a900900880008b
:1037cc000040a0000050a000900888001221a90021
:1037dc0012c1a90084e0a9008ce0a9000a21ef0025
:1037ec001e0078008000eb00eef3070002002000c2
:1037fc00a327240040f40700cff307000000780053
:10380c000000e9007008880070088000d06c880007
:10381c0013e1a9000080fa00000006000000fa0085
:10382c0084e0a9000a21ef00d06c800070088800a9
:10383c0013e1a8000080fa00000006000000fa0066
:10384c0013e1a90084e0a9000080fa000000060042
:10385c000200fa00000f78000060fe00f004800007
:10386c000040a0000050a1000060a100f0048800fe
:10387c001fe1a900f00880000040a0000050a0004b
:10388c00f00888001e21a9001ec1a90086a0a9006d
:10389c008ea0a9001421ef001e0078008000eb0020
:1038ac00c0f3070002002000a327240012f4070035
:1038bc00a1f30700000078000000e900d0088800a0
:1038cc00d0088000e06c88001fe1a9000080fa009d
:1038dc00000006000000fa0086a0a9008ea0a80037
:1038ec001421ef00e06c8000d00888001fe1a800d4
:1038fc000080fa00000006000000fa001fe1a90099
:10390c008ea0a90086a0a9000080fa000000060085
:10391c000000fa0000c4b30080ebb700816bef002d
:10392c00836bef00826bef0000802000205c88002e
:10393c000080fa00000006000400fa00100798004e
:10394c0000b82000000f78001e0078009040900016
:10395c001e0078001040780080cf5000230031000a
:10396c00e0c0b30086ebb70086cbbf000081fb0044
:10397c001e007800a00190001e00780030409000de
:10398c000080fb006e00b900000078000080410050
:10399c009e0090003bf407001e0078003040900021
:1039ac000080fb008000e8001e00780010407800ca
:1039bc000080fb0000017800110009008200d80093
:1039cc008000fd00804078001e0078003140980097
:1039dc001e007800104090008040e8001e00780027
:1039ec001140980000c0eb00010037000040eb00d4
:1039fc000080fa00000006000400fa00100798008e
:103a0c0000b82000000f78000060fe001e00780057
:103a1c00104090000004e000210032001e007800ed
:103a2c00200190001e007800204090000080fb00d8
:103a3c006e00b9000000780000004100e200200098
:103a4c00800078001e0090000ef407001e00780025
:103a5c00204090000080fb008000e8001e007800f1
:103a6c00104078000080fb00000178001100090074
:103a7c008200d8008000fd00804078001e00780095
:103a8c00214098001e007800104090008040e90012
:103a9c001e0078001140980000c0eb0001003700b8
:103aac000040eb000080fa00000006000800fa005d
:103abc00200798006147980000c0eb00004f780089
:103acc0000c0eb0010479800130037000060fe00a8
:103adc002e009000104078001e406800204798008f
:103aec002e0090000000e800200798002e40900067
:103afc000080fb0061552800e14078001e409000da
:103b0c0000cf68002e4090000080fb00616528000b
:103b1c0061417800124798006e4090000080fb00d5
:103b2c000000ea004f00de0000407800ee409000fc
:103b3c008140e900614798000004e000e3ff3a008f
:103b4c000060fe001e80fb00c800dd001e409000df
:103b5c000080fb00010070000080fa0000000600ed
:103b6c000600fa00200798000000eb00000f780018
:103b7c000040eb00204798000b0037002e0090000f
:103b8c00900078002e4090000080fb0000804000e8
:103b9c00104078000080fb001e0f40002e4090006b
:103bac000040e800204798002e009000a0409000b4
:103bbc002e40900080cf5000f0ff3e001e00780099
:103bcc000080fa00000006000400fa00204798006c
:103bdc000000eb00000f78000060fe008e00780003
:103bec000e80e80081027800e4cd200013c0b30001
:103bfc0000017800a1cfb30010cab30099fa0700f6
:103c0c000060fe001e0078000040780080407800c4
:103c1c00e0cd200026fb07000060fe000080fa00cb
:103c2c00000006000200fa00000f78000060fe00a1
:103c3c001e00780060409000e14f400014003a00f4
:103c4c001e0078009040900050c8b30080cf500008
:103c5c00030032001e00780010409000daff0700cd
:103c6c000060fe001e007800104090000080fb00f9
:103c7c00e10f500002003a000000fe000100370086
:103c8c00000000001e0078008040eb0061409800ae
:103c9c000080fa00000006000000fa000080eb0033
:103cac00401588000060fe00c602a900c622a900cb
:103cbc00c642a9000080fa00000006000200fa00cb
:103ccc00000f7800040037000060fe0000e82300bd
:103cdc0001002000220007001e00780000f0a70061
:103cec000000ea000000ea004f00de00004078000f
:103cfc001e0fe9000004e000f3ff3a000080fa0018
:043d0c0000000600ad
:020000040000fa
:103d1000000800008803000000000000980d00006b
:103d20000600000000000000680d000030000000e8
:103d3000000000009e0d00000400000000000000d4
:103d4000a40d00000200000002000000ffa100001e
:103d5000880b000096010000000000001e0d00000e
:0c3d60004a00000000000000d21e80009d
:020000040000fa
:103d6c00f03fb1000180b10006003500ee03090000
:103d7c0000000000403fb1000180b100fbff3d009e
:103d8c001000b000203fb000020035000080090098
:083d9c00000000000000060019
:020000040000fa
:043da400000000001b
:020000040000fa
:0200000401f009
:04000000f7bf000046
:020000040000fa
:0200000401f009
:04000400d0ff000029
:020000040000fa
:0200000401f009
:04000800dfff000016
:020000040000fa
:0200000401f009
:04001400ffff0000ea
:020000040000fa
:0200000401f009
:04001800ffff0000e6
:00000001FF
